{
  "contractName": "TestToken",
  "abi": [
    {
      "inputs": [],
      "stateMutability": "nonpayable",
      "type": "constructor"
    },
    {
      "anonymous": false,
      "inputs": [
        {
          "indexed": true,
          "internalType": "address",
          "name": "owner",
          "type": "address"
        },
        {
          "indexed": true,
          "internalType": "address",
          "name": "approved",
          "type": "address"
        },
        {
          "indexed": true,
          "internalType": "uint256",
          "name": "tokenId",
          "type": "uint256"
        }
      ],
      "name": "Approval",
      "type": "event"
    },
    {
      "anonymous": false,
      "inputs": [
        {
          "indexed": true,
          "internalType": "address",
          "name": "owner",
          "type": "address"
        },
        {
          "indexed": true,
          "internalType": "address",
          "name": "operator",
          "type": "address"
        },
        {
          "indexed": false,
          "internalType": "bool",
          "name": "approved",
          "type": "bool"
        }
      ],
      "name": "ApprovalForAll",
      "type": "event"
    },
    {
      "anonymous": false,
      "inputs": [
        {
          "indexed": true,
          "internalType": "address",
          "name": "from",
          "type": "address"
        },
        {
          "indexed": true,
          "internalType": "address",
          "name": "to",
          "type": "address"
        },
        {
          "indexed": true,
          "internalType": "uint256",
          "name": "tokenId",
          "type": "uint256"
        }
      ],
      "name": "Transfer",
      "type": "event"
    },
    {
      "anonymous": false,
      "inputs": [
        {
          "indexed": false,
          "internalType": "uint256",
          "name": "id",
          "type": "uint256"
        },
        {
          "indexed": false,
          "internalType": "string",
          "name": "name",
          "type": "string"
        }
      ],
      "name": "newPkmn",
      "type": "event"
    },
    {
      "inputs": [
        {
          "internalType": "uint256",
          "name": "",
          "type": "uint256"
        }
      ],
      "name": "PkmnToTrainer",
      "outputs": [
        {
          "internalType": "address",
          "name": "",
          "type": "address"
        }
      ],
      "stateMutability": "view",
      "type": "function",
      "constant": true
    },
    {
      "inputs": [
        {
          "internalType": "uint256",
          "name": "user",
          "type": "uint256"
        }
      ],
      "name": "_level_up",
      "outputs": [
        {
          "internalType": "uint256",
          "name": "",
          "type": "uint256"
        }
      ],
      "stateMutability": "nonpayable",
      "type": "function"
    },
    {
      "inputs": [
        {
          "internalType": "address",
          "name": "to",
          "type": "address"
        },
        {
          "internalType": "uint256",
          "name": "tokenId",
          "type": "uint256"
        }
      ],
      "name": "approve",
      "outputs": [],
      "stateMutability": "nonpayable",
      "type": "function"
    },
    {
      "inputs": [
        {
          "internalType": "address",
          "name": "owner",
          "type": "address"
        }
      ],
      "name": "balanceOf",
      "outputs": [
        {
          "internalType": "uint256",
          "name": "",
          "type": "uint256"
        }
      ],
      "stateMutability": "view",
      "type": "function",
      "constant": true
    },
    {
      "inputs": [
        {
          "internalType": "uint256",
          "name": "user",
          "type": "uint256"
        },
        {
          "internalType": "uint256",
          "name": "enemy",
          "type": "uint256"
        }
      ],
      "name": "battle",
      "outputs": [
        {
          "internalType": "uint256",
          "name": "",
          "type": "uint256"
        }
      ],
      "stateMutability": "nonpayable",
      "type": "function"
    },
    {
      "inputs": [
        {
          "internalType": "uint256",
          "name": "tokenId",
          "type": "uint256"
        }
      ],
      "name": "getApproved",
      "outputs": [
        {
          "internalType": "address",
          "name": "",
          "type": "address"
        }
      ],
      "stateMutability": "view",
      "type": "function",
      "constant": true
    },
    {
      "inputs": [
        {
          "internalType": "address",
          "name": "owner",
          "type": "address"
        },
        {
          "internalType": "address",
          "name": "operator",
          "type": "address"
        }
      ],
      "name": "isApprovedForAll",
      "outputs": [
        {
          "internalType": "bool",
          "name": "",
          "type": "bool"
        }
      ],
      "stateMutability": "view",
      "type": "function",
      "constant": true
    },
    {
      "inputs": [
        {
          "internalType": "uint256",
          "name": "user",
          "type": "uint256"
        }
      ],
      "name": "level_up",
      "outputs": [],
      "stateMutability": "payable",
      "type": "function",
      "payable": true
    },
    {
      "inputs": [],
      "name": "name",
      "outputs": [
        {
          "internalType": "string",
          "name": "",
          "type": "string"
        }
      ],
      "stateMutability": "view",
      "type": "function",
      "constant": true
    },
    {
      "inputs": [
        {
          "internalType": "uint256",
          "name": "tokenId",
          "type": "uint256"
        }
      ],
      "name": "ownerOf",
      "outputs": [
        {
          "internalType": "address",
          "name": "",
          "type": "address"
        }
      ],
      "stateMutability": "view",
      "type": "function",
      "constant": true
    },
    {
      "inputs": [
        {
          "internalType": "uint256",
          "name": "",
          "type": "uint256"
        }
      ],
      "name": "pokemons",
      "outputs": [
        {
          "internalType": "string",
          "name": "name",
          "type": "string"
        },
        {
          "internalType": "uint256",
          "name": "hp",
          "type": "uint256"
        },
        {
          "internalType": "uint256",
          "name": "atk_stat",
          "type": "uint256"
        },
        {
          "internalType": "uint256",
          "name": "level",
          "type": "uint256"
        },
        {
          "internalType": "bool",
          "name": "faint",
          "type": "bool"
        }
      ],
      "stateMutability": "view",
      "type": "function",
      "constant": true
    },
    {
      "inputs": [
        {
          "internalType": "uint256",
          "name": "user",
          "type": "uint256"
        },
        {
          "internalType": "string",
          "name": "new_name",
          "type": "string"
        }
      ],
      "name": "rename",
      "outputs": [],
      "stateMutability": "nonpayable",
      "type": "function"
    },
    {
      "inputs": [
        {
          "internalType": "uint256",
          "name": "user",
          "type": "uint256"
        }
      ],
      "name": "revive",
      "outputs": [
        {
          "internalType": "uint256",
          "name": "",
          "type": "uint256"
        }
      ],
      "stateMutability": "payable",
      "type": "function",
      "payable": true
    },
    {
      "inputs": [
        {
          "internalType": "address",
          "name": "from",
          "type": "address"
        },
        {
          "internalType": "address",
          "name": "to",
          "type": "address"
        },
        {
          "internalType": "uint256",
          "name": "tokenId",
          "type": "uint256"
        }
      ],
      "name": "safeTransferFrom",
      "outputs": [],
      "stateMutability": "nonpayable",
      "type": "function"
    },
    {
      "inputs": [
        {
          "internalType": "address",
          "name": "from",
          "type": "address"
        },
        {
          "internalType": "address",
          "name": "to",
          "type": "address"
        },
        {
          "internalType": "uint256",
          "name": "tokenId",
          "type": "uint256"
        },
        {
          "internalType": "bytes",
          "name": "_data",
          "type": "bytes"
        }
      ],
      "name": "safeTransferFrom",
      "outputs": [],
      "stateMutability": "nonpayable",
      "type": "function"
    },
    {
      "inputs": [
        {
          "internalType": "address",
          "name": "operator",
          "type": "address"
        },
        {
          "internalType": "bool",
          "name": "approved",
          "type": "bool"
        }
      ],
      "name": "setApprovalForAll",
      "outputs": [],
      "stateMutability": "nonpayable",
      "type": "function"
    },
    {
      "inputs": [
        {
          "internalType": "bytes4",
          "name": "interfaceId",
          "type": "bytes4"
        }
      ],
      "name": "supportsInterface",
      "outputs": [
        {
          "internalType": "bool",
          "name": "",
          "type": "bool"
        }
      ],
      "stateMutability": "view",
      "type": "function",
      "constant": true
    },
    {
      "inputs": [],
      "name": "symbol",
      "outputs": [
        {
          "internalType": "string",
          "name": "",
          "type": "string"
        }
      ],
      "stateMutability": "view",
      "type": "function",
      "constant": true
    },
    {
      "inputs": [
        {
          "internalType": "address",
          "name": "from",
          "type": "address"
        },
        {
          "internalType": "address",
          "name": "to",
          "type": "address"
        },
        {
          "internalType": "uint256",
          "name": "tokenId",
          "type": "uint256"
        }
      ],
      "name": "transferFrom",
      "outputs": [],
      "stateMutability": "nonpayable",
      "type": "function"
    },
    {
      "inputs": [
        {
          "internalType": "uint256",
          "name": "tokenID",
          "type": "uint256"
        }
      ],
      "name": "tokenURI",
      "outputs": [
        {
          "internalType": "string",
          "name": "",
          "type": "string"
        }
      ],
      "stateMutability": "view",
      "type": "function",
      "constant": true
    },
    {
      "inputs": [
        {
          "internalType": "address",
          "name": "user",
          "type": "address"
        },
        {
          "internalType": "string",
          "name": "tokenURI",
          "type": "string"
        }
      ],
      "name": "mint",
      "outputs": [
        {
          "internalType": "uint256",
          "name": "",
          "type": "uint256"
        }
      ],
      "stateMutability": "nonpayable",
      "type": "function"
    }
  ],
  "bytecode": "0x60806040523480156200001157600080fd5b506040518060400160405280600981526020017f54657374546f6b656e00000000000000000000000000000000000000000000008152506040518060400160405280600481526020017f506b6d6e00000000000000000000000000000000000000000000000000000000815250816000908051906020019062000096929190620000b8565b508060019080519060200190620000af929190620000b8565b505050620001cd565b828054620000c69062000197565b90600052602060002090601f016020900481019282620000ea576000855562000136565b82601f106200010557805160ff191683800117855562000136565b8280016001018555821562000136579182015b828111156200013557825182559160200191906001019062000118565b5b50905062000145919062000149565b5090565b5b80821115620001645760008160009055506001016200014a565b5090565b7f4e487b7100000000000000000000000000000000000000000000000000000000600052602260045260246000fd5b60006002820490506001821680620001b057607f821691505b60208210811415620001c757620001c662000168565b5b50919050565b6134ae80620001dd6000396000f3fe60806040526004361061012a5760003560e01c806370a08231116100ab57806395d89b411161006f57806395d89b4114610436578063a22cb46514610461578063b88d4fde1461048a578063c87b56dd146104b3578063d0def521146104f0578063e985e9c51461052d5761012a565b806370a082311461032f578063858310791461036c5780638a7bc5af146103ad5780638baecc21146103ea578063902494481461041a5761012a565b80632a0c5221116100f25780632a0c52211461022657806333a700f0146102635780633ec2d836146102a057806342842e0e146102c95780636352211e146102f25761012a565b806301ffc9a71461012f57806306fdde031461016c578063081812fc14610197578063095ea7b3146101d457806323b872dd146101fd575b600080fd5b34801561013b57600080fd5b506101566004803603810190610151919061204e565b61056a565b6040516101639190612096565b60405180910390f35b34801561017857600080fd5b5061018161064c565b60405161018e919061214a565b60405180910390f35b3480156101a357600080fd5b506101be60048036038101906101b991906121a2565b6106de565b6040516101cb9190612210565b60405180910390f35b3480156101e057600080fd5b506101fb60048036038101906101f69190612257565b610763565b005b34801561020957600080fd5b50610224600480360381019061021f9190612297565b61087b565b005b34801561023257600080fd5b5061024d600480360381019061024891906122ea565b6108db565b60405161025a9190612339565b60405180910390f35b34801561026f57600080fd5b5061028a600480360381019061028591906121a2565b6109bd565b6040516102979190612210565b60405180910390f35b3480156102ac57600080fd5b506102c760048036038101906102c29190612489565b6109f0565b005b3480156102d557600080fd5b506102f060048036038101906102eb9190612297565b610a2e565b005b3480156102fe57600080fd5b50610319600480360381019061031491906121a2565b610a4e565b6040516103269190612210565b60405180910390f35b34801561033b57600080fd5b50610356600480360381019061035191906124e5565b610b00565b6040516103639190612339565b60405180910390f35b34801561037857600080fd5b50610393600480360381019061038e91906121a2565b610bb8565b6040516103a4959493929190612512565b60405180910390f35b3480156103b957600080fd5b506103d460048036038101906103cf91906121a2565b610c93565b6040516103e19190612339565b60405180910390f35b61040460048036038101906103ff91906121a2565b610dee565b6040516104119190612339565b60405180910390f35b610434600480360381019061042f91906121a2565b610e91565b005b34801561044257600080fd5b5061044b610eec565b604051610458919061214a565b60405180910390f35b34801561046d57600080fd5b5061048860048036038101906104839190612598565b610f7e565b005b34801561049657600080fd5b506104b160048036038101906104ac9190612679565b610f94565b005b3480156104bf57600080fd5b506104da60048036038101906104d591906121a2565b610ff6565b6040516104e7919061214a565b60405180910390f35b3480156104fc57600080fd5b50610517600480360381019061051291906126fc565b611027565b6040516105249190612339565b60405180910390f35b34801561053957600080fd5b50610554600480360381019061054f9190612758565b61105f565b6040516105619190612096565b60405180910390f35b60007f80ac58cd000000000000000000000000000000000000000000000000000000007bffffffffffffffffffffffffffffffffffffffffffffffffffffffff1916827bffffffffffffffffffffffffffffffffffffffffffffffffffffffff1916148061063557507f5b5e139f000000000000000000000000000000000000000000000000000000007bffffffffffffffffffffffffffffffffffffffffffffffffffffffff1916827bffffffffffffffffffffffffffffffffffffffffffffffffffffffff1916145b806106455750610644826110f3565b5b9050919050565b60606000805461065b906127c7565b80601f0160208091040260200160405190810160405280929190818152602001828054610687906127c7565b80156106d45780601f106106a9576101008083540402835291602001916106d4565b820191906000526020600020905b8154815290600101906020018083116106b757829003601f168201915b5050505050905090565b60006106e98261115d565b610728576040517f08c379a000000000000000000000000000000000000000000000000000000000815260040161071f9061286b565b60405180910390fd5b6004600083815260200190815260200160002060009054906101000a900473ffffffffffffffffffffffffffffffffffffffff169050919050565b600061076e82610a4e565b90508073ffffffffffffffffffffffffffffffffffffffff168373ffffffffffffffffffffffffffffffffffffffff1614156107df576040517f08c379a00000000000000000000000000000000000000000000000000000000081526004016107d6906128fd565b60405180910390fd5b8073ffffffffffffffffffffffffffffffffffffffff166107fe6111c9565b73ffffffffffffffffffffffffffffffffffffffff16148061082d575061082c816108276111c9565b61105f565b5b61086c576040517f08c379a00000000000000000000000000000000000000000000000000000000081526004016108639061298f565b60405180910390fd5b61087683836111d1565b505050565b61088c6108866111c9565b8261128a565b6108cb576040517f08c379a00000000000000000000000000000000000000000000000000000000081526004016108c290612a21565b60405180910390fd5b6108d6838383611368565b505050565b600080600784815481106108f2576108f1612a41565b5b9060005260206000209060050201905060006007848154811061091857610917612a41565b5b90600052602060002090600502019050600115158260040160009054906101000a900460ff1615151415610951576000925050506109b7565b816002015481600101546109659190612ace565b816002015483600101546109799190612ace565b106109935761098785610c93565b506001925050506109b7565b60018260040160006101000a81548160ff0219169083151502179055506000925050505b92915050565b60086020528060005260406000206000915054906101000a900473ffffffffffffffffffffffffffffffffffffffff1681565b8060078381548110610a0557610a04612a41565b5b90600052602060002090600502016000019080519060200190610a29929190611f3f565b505050565b610a4983838360405180602001604052806000815250610f94565b505050565b6000806002600084815260200190815260200160002060009054906101000a900473ffffffffffffffffffffffffffffffffffffffff169050600073ffffffffffffffffffffffffffffffffffffffff168173ffffffffffffffffffffffffffffffffffffffff161415610af7576040517f08c379a0000000000000000000000000000000000000000000000000000000008152600401610aee90612b71565b60405180910390fd5b80915050919050565b60008073ffffffffffffffffffffffffffffffffffffffff168273ffffffffffffffffffffffffffffffffffffffff161415610b71576040517f08c379a0000000000000000000000000000000000000000000000000000000008152600401610b6890612c03565b60405180910390fd5b600360008373ffffffffffffffffffffffffffffffffffffffff1673ffffffffffffffffffffffffffffffffffffffff168152602001908152602001600020549050919050565b60078181548110610bc857600080fd5b9060005260206000209060050201600091509050806000018054610beb906127c7565b80601f0160208091040260200160405190810160405280929190818152602001828054610c17906127c7565b8015610c645780601f10610c3957610100808354040283529160200191610c64565b820191906000526020600020905b815481529060010190602001808311610c4757829003601f168201915b5050505050908060010154908060020154908060030154908060040160009054906101000a900460ff16905085565b6000606460078381548110610cab57610caa612a41565b5b9060005260206000209060050201600301541415610ccc5760009050610de9565b6029610cd66115c4565b610ce09190612c23565b60078381548110610cf457610cf3612a41565b5b906000526020600020906005020160010154610d109190612c54565b60078381548110610d2457610d23612a41565b5b9060005260206000209060050201600101819055506008610d436115c4565b610d4d9190612c23565b60078381548110610d6157610d60612a41565b5b906000526020600020906005020160020154610d7d9190612c54565b60078381548110610d9157610d90612a41565b5b906000526020600020906005020160020181905550600060078381548110610dbc57610dbb612a41565b5b906000526020600020906005020160040160006101000a81548160ff021916908315150217905550600190505b919050565b600080151560078381548110610e0757610e06612a41565b5b906000526020600020906005020160040160009054906101000a900460ff1615151415610e375760009050610e8c565b6509184e72a0003414610e4957600080fd5b600060078381548110610e5f57610e5e612a41565b5b906000526020600020906005020160040160006101000a81548160ff021916908315150217905550600190505b919050565b66038d7ea4c680003414610ea457600080fd5b60078181548110610eb857610eb7612a41565b5b90600052602060002090600502016003016000815480929190610eda90612caa565b9190505550610ee881610c93565b5050565b606060018054610efb906127c7565b80601f0160208091040260200160405190810160405280929190818152602001828054610f27906127c7565b8015610f745780601f10610f4957610100808354040283529160200191610f74565b820191906000526020600020905b815481529060010190602001808311610f5757829003601f168201915b5050505050905090565b610f90610f896111c9565b83836115ff565b5050565b610fa5610f9f6111c9565b8361128a565b610fe4576040517f08c379a0000000000000000000000000000000000000000000000000000000008152600401610fdb90612a21565b60405180910390fd5b610ff08484848461176c565b50505050565b6060611001826117c8565b6040516020016110119190612d7b565b6040516020818303038152906040529050919050565b6000611033600961191a565b600061103f6009611930565b905061104b848261193e565b6110558184611b0c565b8091505092915050565b6000600560008473ffffffffffffffffffffffffffffffffffffffff1673ffffffffffffffffffffffffffffffffffffffff16815260200190815260200160002060008373ffffffffffffffffffffffffffffffffffffffff1673ffffffffffffffffffffffffffffffffffffffff16815260200190815260200160002060009054906101000a900460ff16905092915050565b60007f01ffc9a7000000000000000000000000000000000000000000000000000000007bffffffffffffffffffffffffffffffffffffffffffffffffffffffff1916827bffffffffffffffffffffffffffffffffffffffffffffffffffffffff1916149050919050565b60008073ffffffffffffffffffffffffffffffffffffffff166002600084815260200190815260200160002060009054906101000a900473ffffffffffffffffffffffffffffffffffffffff1673ffffffffffffffffffffffffffffffffffffffff1614159050919050565b600033905090565b816004600083815260200190815260200160002060006101000a81548173ffffffffffffffffffffffffffffffffffffffff021916908373ffffffffffffffffffffffffffffffffffffffff160217905550808273ffffffffffffffffffffffffffffffffffffffff1661124483610a4e565b73ffffffffffffffffffffffffffffffffffffffff167f8c5be1e5ebec7d5bd14f71427d1e84f3dd0314c0f7b2291e5b200ac8c7c3b92560405160405180910390a45050565b60006112958261115d565b6112d4576040517f08c379a00000000000000000000000000000000000000000000000000000000081526004016112cb90612e0f565b60405180910390fd5b60006112df83610a4e565b90508073ffffffffffffffffffffffffffffffffffffffff168473ffffffffffffffffffffffffffffffffffffffff16148061134e57508373ffffffffffffffffffffffffffffffffffffffff16611336846106de565b73ffffffffffffffffffffffffffffffffffffffff16145b8061135f575061135e818561105f565b5b91505092915050565b8273ffffffffffffffffffffffffffffffffffffffff1661138882610a4e565b73ffffffffffffffffffffffffffffffffffffffff16146113de576040517f08c379a00000000000000000000000000000000000000000000000000000000081526004016113d590612ea1565b60405180910390fd5b600073ffffffffffffffffffffffffffffffffffffffff168273ffffffffffffffffffffffffffffffffffffffff16141561144e576040517f08c379a000000000000000000000000000000000000000000000000000000000815260040161144590612f33565b60405180910390fd5b611459838383611b80565b6114646000826111d1565b6001600360008573ffffffffffffffffffffffffffffffffffffffff1673ffffffffffffffffffffffffffffffffffffffff16815260200190815260200160002060008282546114b49190612f53565b925050819055506001600360008473ffffffffffffffffffffffffffffffffffffffff1673ffffffffffffffffffffffffffffffffffffffff168152602001908152602001600020600082825461150b9190612c54565b92505081905550816002600083815260200190815260200160002060006101000a81548173ffffffffffffffffffffffffffffffffffffffff021916908373ffffffffffffffffffffffffffffffffffffffff160217905550808273ffffffffffffffffffffffffffffffffffffffff168473ffffffffffffffffffffffffffffffffffffffff167fddf252ad1be2c89b69c2b068fc378daa952ba7f163c4a11628f55a4df523b3ef60405160405180910390a4505050565b600080600090504442826040516020016115e093929190612fa8565b6040516020818303038152906040528051906020012060001c91505090565b8173ffffffffffffffffffffffffffffffffffffffff168373ffffffffffffffffffffffffffffffffffffffff16141561166e576040517f08c379a000000000000000000000000000000000000000000000000000000000815260040161166590613031565b60405180910390fd5b80600560008573ffffffffffffffffffffffffffffffffffffffff1673ffffffffffffffffffffffffffffffffffffffff16815260200190815260200160002060008473ffffffffffffffffffffffffffffffffffffffff1673ffffffffffffffffffffffffffffffffffffffff16815260200190815260200160002060006101000a81548160ff0219169083151502179055508173ffffffffffffffffffffffffffffffffffffffff168373ffffffffffffffffffffffffffffffffffffffff167f17307eab39ab6107e8899845ad3d59bd9653f200f220920489ca2b5937696c318360405161175f9190612096565b60405180910390a3505050565b611777848484611368565b61178384848484611b85565b6117c2576040517f08c379a00000000000000000000000000000000000000000000000000000000081526004016117b9906130c3565b60405180910390fd5b50505050565b60606117d38261115d565b611812576040517f08c379a000000000000000000000000000000000000000000000000000000000815260040161180990613155565b60405180910390fd5b6000600660008481526020019081526020016000208054611832906127c7565b80601f016020809104026020016040519081016040528092919081815260200182805461185e906127c7565b80156118ab5780601f10611880576101008083540402835291602001916118ab565b820191906000526020600020905b81548152906001019060200180831161188e57829003601f168201915b5050505050905060006118bc611d0d565b90506000815114156118d2578192505050611915565b6000825111156119075780826040516020016118ef929190613175565b60405160208183030381529060405292505050611915565b61191084611d24565b925050505b919050565b6001816000016000828254019250508190555050565b600081600001549050919050565b600073ffffffffffffffffffffffffffffffffffffffff168273ffffffffffffffffffffffffffffffffffffffff1614156119ae576040517f08c379a00000000000000000000000000000000000000000000000000000000081526004016119a5906131e5565b60405180910390fd5b6119b78161115d565b156119f7576040517f08c379a00000000000000000000000000000000000000000000000000000000081526004016119ee90613251565b60405180910390fd5b611a0360008383611b80565b6001600360008473ffffffffffffffffffffffffffffffffffffffff1673ffffffffffffffffffffffffffffffffffffffff1681526020019081526020016000206000828254611a539190612c54565b92505081905550816002600083815260200190815260200160002060006101000a81548173ffffffffffffffffffffffffffffffffffffffff021916908373ffffffffffffffffffffffffffffffffffffffff160217905550808273ffffffffffffffffffffffffffffffffffffffff16600073ffffffffffffffffffffffffffffffffffffffff167fddf252ad1be2c89b69c2b068fc378daa952ba7f163c4a11628f55a4df523b3ef60405160405180910390a45050565b611b158261115d565b611b54576040517f08c379a0000000000000000000000000000000000000000000000000000000008152600401611b4b906132e3565b60405180910390fd5b80600660008481526020019081526020016000209080519060200190611b7b929190611f3f565b505050565b505050565b6000611ba68473ffffffffffffffffffffffffffffffffffffffff16611dcb565b15611d00578373ffffffffffffffffffffffffffffffffffffffff1663150b7a02611bcf6111c9565b8786866040518563ffffffff1660e01b8152600401611bf19493929190613358565b6020604051808303816000875af1925050508015611c2d57506040513d601f19601f82011682018060405250810190611c2a91906133b9565b60015b611cb0573d8060008114611c5d576040519150601f19603f3d011682016040523d82523d6000602084013e611c62565b606091505b50600081511415611ca8576040517f08c379a0000000000000000000000000000000000000000000000000000000008152600401611c9f906130c3565b60405180910390fd5b805181602001fd5b63150b7a0260e01b7bffffffffffffffffffffffffffffffffffffffffffffffffffffffff1916817bffffffffffffffffffffffffffffffffffffffffffffffffffffffff191614915050611d05565b600190505b949350505050565b606060405180602001604052806000815250905090565b6060611d2f8261115d565b611d6e576040517f08c379a0000000000000000000000000000000000000000000000000000000008152600401611d6590613458565b60405180910390fd5b6000611d78611d0d565b90506000815111611d985760405180602001604052806000815250611dc3565b80611da284611dde565b604051602001611db3929190613175565b6040516020818303038152906040525b915050919050565b600080823b905060008111915050919050565b60606000821415611e26576040518060400160405280600181526020017f30000000000000000000000000000000000000000000000000000000000000008152509050611f3a565b600082905060005b60008214611e58578080611e4190612caa565b915050600a82611e519190612ace565b9150611e2e565b60008167ffffffffffffffff811115611e7457611e7361235e565b5b6040519080825280601f01601f191660200182016040528015611ea65781602001600182028036833780820191505090505b5090505b60008514611f3357600182611ebf9190612f53565b9150600a85611ece9190612c23565b6030611eda9190612c54565b60f81b818381518110611ef057611eef612a41565b5b60200101907effffffffffffffffffffffffffffffffffffffffffffffffffffffffffffff1916908160001a905350600a85611f2c9190612ace565b9450611eaa565b8093505050505b919050565b828054611f4b906127c7565b90600052602060002090601f016020900481019282611f6d5760008555611fb4565b82601f10611f8657805160ff1916838001178555611fb4565b82800160010185558215611fb4579182015b82811115611fb3578251825591602001919060010190611f98565b5b509050611fc19190611fc5565b5090565b5b80821115611fde576000816000905550600101611fc6565b5090565b6000604051905090565b600080fd5b600080fd5b60007fffffffff0000000000000000000000000000000000000000000000000000000082169050919050565b61202b81611ff6565b811461203657600080fd5b50565b60008135905061204881612022565b92915050565b60006020828403121561206457612063611fec565b5b600061207284828501612039565b91505092915050565b60008115159050919050565b6120908161207b565b82525050565b60006020820190506120ab6000830184612087565b92915050565b600081519050919050565b600082825260208201905092915050565b60005b838110156120eb5780820151818401526020810190506120d0565b838111156120fa576000848401525b50505050565b6000601f19601f8301169050919050565b600061211c826120b1565b61212681856120bc565b93506121368185602086016120cd565b61213f81612100565b840191505092915050565b600060208201905081810360008301526121648184612111565b905092915050565b6000819050919050565b61217f8161216c565b811461218a57600080fd5b50565b60008135905061219c81612176565b92915050565b6000602082840312156121b8576121b7611fec565b5b60006121c68482850161218d565b91505092915050565b600073ffffffffffffffffffffffffffffffffffffffff82169050919050565b60006121fa826121cf565b9050919050565b61220a816121ef565b82525050565b60006020820190506122256000830184612201565b92915050565b612234816121ef565b811461223f57600080fd5b50565b6000813590506122518161222b565b92915050565b6000806040838503121561226e5761226d611fec565b5b600061227c85828601612242565b925050602061228d8582860161218d565b9150509250929050565b6000806000606084860312156122b0576122af611fec565b5b60006122be86828701612242565b93505060206122cf86828701612242565b92505060406122e08682870161218d565b9150509250925092565b6000806040838503121561230157612300611fec565b5b600061230f8582860161218d565b92505060206123208582860161218d565b9150509250929050565b6123338161216c565b82525050565b600060208201905061234e600083018461232a565b92915050565b600080fd5b600080fd5b7f4e487b7100000000000000000000000000000000000000000000000000000000600052604160045260246000fd5b61239682612100565b810181811067ffffffffffffffff821117156123b5576123b461235e565b5b80604052505050565b60006123c8611fe2565b90506123d4828261238d565b919050565b600067ffffffffffffffff8211156123f4576123f361235e565b5b6123fd82612100565b9050602081019050919050565b82818337600083830152505050565b600061242c612427846123d9565b6123be565b90508281526020810184848401111561244857612447612359565b5b61245384828561240a565b509392505050565b600082601f8301126124705761246f612354565b5b8135612480848260208601612419565b91505092915050565b600080604083850312156124a05761249f611fec565b5b60006124ae8582860161218d565b925050602083013567ffffffffffffffff8111156124cf576124ce611ff1565b5b6124db8582860161245b565b9150509250929050565b6000602082840312156124fb576124fa611fec565b5b600061250984828501612242565b91505092915050565b600060a082019050818103600083015261252c8188612111565b905061253b602083018761232a565b612548604083018661232a565b612555606083018561232a565b6125626080830184612087565b9695505050505050565b6125758161207b565b811461258057600080fd5b50565b6000813590506125928161256c565b92915050565b600080604083850312156125af576125ae611fec565b5b60006125bd85828601612242565b92505060206125ce85828601612583565b9150509250929050565b600067ffffffffffffffff8211156125f3576125f261235e565b5b6125fc82612100565b9050602081019050919050565b600061261c612617846125d8565b6123be565b90508281526020810184848401111561263857612637612359565b5b61264384828561240a565b509392505050565b600082601f8301126126605761265f612354565b5b8135612670848260208601612609565b91505092915050565b6000806000806080858703121561269357612692611fec565b5b60006126a187828801612242565b94505060206126b287828801612242565b93505060406126c38782880161218d565b925050606085013567ffffffffffffffff8111156126e4576126e3611ff1565b5b6126f08782880161264b565b91505092959194509250565b6000806040838503121561271357612712611fec565b5b600061272185828601612242565b925050602083013567ffffffffffffffff81111561274257612741611ff1565b5b61274e8582860161245b565b9150509250929050565b6000806040838503121561276f5761276e611fec565b5b600061277d85828601612242565b925050602061278e85828601612242565b9150509250929050565b7f4e487b7100000000000000000000000000000000000000000000000000000000600052602260045260246000fd5b600060028204905060018216806127df57607f821691505b602082108114156127f3576127f2612798565b5b50919050565b7f4552433732313a20617070726f76656420717565727920666f72206e6f6e657860008201527f697374656e7420746f6b656e0000000000000000000000000000000000000000602082015250565b6000612855602c836120bc565b9150612860826127f9565b604082019050919050565b6000602082019050818103600083015261288481612848565b9050919050565b7f4552433732313a20617070726f76616c20746f2063757272656e74206f776e6560008201527f7200000000000000000000000000000000000000000000000000000000000000602082015250565b60006128e76021836120bc565b91506128f28261288b565b604082019050919050565b60006020820190508181036000830152612916816128da565b9050919050565b7f4552433732313a20617070726f76652063616c6c6572206973206e6f74206f7760008201527f6e6572206e6f7220617070726f76656420666f7220616c6c0000000000000000602082015250565b60006129796038836120bc565b91506129848261291d565b604082019050919050565b600060208201905081810360008301526129a88161296c565b9050919050565b7f4552433732313a207472616e736665722063616c6c6572206973206e6f74206f60008201527f776e6572206e6f7220617070726f766564000000000000000000000000000000602082015250565b6000612a0b6031836120bc565b9150612a16826129af565b604082019050919050565b60006020820190508181036000830152612a3a816129fe565b9050919050565b7f4e487b7100000000000000000000000000000000000000000000000000000000600052603260045260246000fd5b7f4e487b7100000000000000000000000000000000000000000000000000000000600052601260045260246000fd5b7f4e487b7100000000000000000000000000000000000000000000000000000000600052601160045260246000fd5b6000612ad98261216c565b9150612ae48361216c565b925082612af457612af3612a70565b5b828204905092915050565b7f4552433732313a206f776e657220717565727920666f72206e6f6e657869737460008201527f656e7420746f6b656e0000000000000000000000000000000000000000000000602082015250565b6000612b5b6029836120bc565b9150612b6682612aff565b604082019050919050565b60006020820190508181036000830152612b8a81612b4e565b9050919050565b7f4552433732313a2062616c616e636520717565727920666f7220746865207a6560008201527f726f206164647265737300000000000000000000000000000000000000000000602082015250565b6000612bed602a836120bc565b9150612bf882612b91565b604082019050919050565b60006020820190508181036000830152612c1c81612be0565b9050919050565b6000612c2e8261216c565b9150612c398361216c565b925082612c4957612c48612a70565b5b828206905092915050565b6000612c5f8261216c565b9150612c6a8361216c565b9250827fffffffffffffffffffffffffffffffffffffffffffffffffffffffffffffffff03821115612c9f57612c9e612a9f565b5b828201905092915050565b6000612cb58261216c565b91507fffffffffffffffffffffffffffffffffffffffffffffffffffffffffffffffff821415612ce857612ce7612a9f565b5b600182019050919050565b600081905092915050565b6000612d09826120b1565b612d138185612cf3565b9350612d238185602086016120cd565b80840191505092915050565b7f2e6a736f6e000000000000000000000000000000000000000000000000000000600082015250565b6000612d65600583612cf3565b9150612d7082612d2f565b600582019050919050565b6000612d878284612cfe565b9150612d9282612d58565b915081905092915050565b7f4552433732313a206f70657261746f7220717565727920666f72206e6f6e657860008201527f697374656e7420746f6b656e0000000000000000000000000000000000000000602082015250565b6000612df9602c836120bc565b9150612e0482612d9d565b604082019050919050565b60006020820190508181036000830152612e2881612dec565b9050919050565b7f4552433732313a207472616e73666572206f6620746f6b656e2074686174206960008201527f73206e6f74206f776e0000000000000000000000000000000000000000000000602082015250565b6000612e8b6029836120bc565b9150612e9682612e2f565b604082019050919050565b60006020820190508181036000830152612eba81612e7e565b9050919050565b7f4552433732313a207472616e7366657220746f20746865207a65726f2061646460008201527f7265737300000000000000000000000000000000000000000000000000000000602082015250565b6000612f1d6024836120bc565b9150612f2882612ec1565b604082019050919050565b60006020820190508181036000830152612f4c81612f10565b9050919050565b6000612f5e8261216c565b9150612f698361216c565b925082821015612f7c57612f7b612a9f565b5b828203905092915050565b6000819050919050565b612fa2612f9d8261216c565b612f87565b82525050565b6000612fb48286612f91565b602082019150612fc48285612f91565b602082019150612fd48284612f91565b602082019150819050949350505050565b7f4552433732313a20617070726f766520746f2063616c6c657200000000000000600082015250565b600061301b6019836120bc565b915061302682612fe5565b602082019050919050565b6000602082019050818103600083015261304a8161300e565b9050919050565b7f4552433732313a207472616e7366657220746f206e6f6e20455243373231526560008201527f63656976657220696d706c656d656e7465720000000000000000000000000000602082015250565b60006130ad6032836120bc565b91506130b882613051565b604082019050919050565b600060208201905081810360008301526130dc816130a0565b9050919050565b7f45524337323155524953746f726167653a2055524920717565727920666f722060008201527f6e6f6e6578697374656e7420746f6b656e000000000000000000000000000000602082015250565b600061313f6031836120bc565b915061314a826130e3565b604082019050919050565b6000602082019050818103600083015261316e81613132565b9050919050565b60006131818285612cfe565b915061318d8284612cfe565b91508190509392505050565b7f4552433732313a206d696e7420746f20746865207a65726f2061646472657373600082015250565b60006131cf6020836120bc565b91506131da82613199565b602082019050919050565b600060208201905081810360008301526131fe816131c2565b9050919050565b7f4552433732313a20746f6b656e20616c7265616479206d696e74656400000000600082015250565b600061323b601c836120bc565b915061324682613205565b602082019050919050565b6000602082019050818103600083015261326a8161322e565b9050919050565b7f45524337323155524953746f726167653a2055524920736574206f66206e6f6e60008201527f6578697374656e7420746f6b656e000000000000000000000000000000000000602082015250565b60006132cd602e836120bc565b91506132d882613271565b604082019050919050565b600060208201905081810360008301526132fc816132c0565b9050919050565b600081519050919050565b600082825260208201905092915050565b600061332a82613303565b613334818561330e565b93506133448185602086016120cd565b61334d81612100565b840191505092915050565b600060808201905061336d6000830187612201565b61337a6020830186612201565b613387604083018561232a565b8181036060830152613399818461331f565b905095945050505050565b6000815190506133b381612022565b92915050565b6000602082840312156133cf576133ce611fec565b5b60006133dd848285016133a4565b91505092915050565b7f4552433732314d657461646174613a2055524920717565727920666f72206e6f60008201527f6e6578697374656e7420746f6b656e0000000000000000000000000000000000602082015250565b6000613442602f836120bc565b915061344d826133e6565b604082019050919050565b6000602082019050818103600083015261347181613435565b905091905056fea2646970667358221220b383c9f814d15d467203b7f3617409023e5460c2915805b4e8e656844b15507764736f6c634300080a0033",
  "immutableReferences": {},
  "source": "// SPDX-License-Identifier: MIT\r\npragma solidity >=0.4.22 <0.9.0;\r\n\r\n//import \"@openzeppelin/contracts/token/ERC721/ERC721.sol\";\r\nimport \"@openzeppelin/contracts/token/ERC721/extensions/ERC721URIStorage.sol\";\r\nimport \"@openzeppelin/contracts/utils/Counters.sol\";\r\nimport \"./PkmnBattle.sol\";\r\n\r\n//Pokemon Token?\r\n\r\ncontract TestToken is PkmnBattle\r\n{\r\n    using Counters for Counters.Counter;\r\n    Counters.Counter private _tokenIds;\r\n\r\n    constructor() ERC721(\"TestToken\", \"Pkmn\") {}\r\n\r\n    function tokenURI(uint tokenID) public view virtual override returns(string memory){\r\n        return string(abi.encodePacked(super.tokenURI(tokenID), \".json\"));\r\n    }\r\n\r\n    function mint(address user, string memory tokenURI) public returns (uint256){\r\n        _tokenIds.increment();\r\n\r\n        uint256 newItemId = _tokenIds.current();\r\n        _mint(user, newItemId);\r\n        _setTokenURI(newItemId, tokenURI);\r\n        return newItemId;\r\n    }\r\n    \r\n}",
  "sourcePath": "C:\\Users\\arulv\\Documents\\2021-2022\\2021 Fall\\Personal Projects\\Experiementing with Truffle\\contracts\\TestToken.sol",
  "compiler": {
    "name": "solc",
    "version": "0.8.10+commit.fc410830.Emscripten.clang"
  },
  "schemaVersion": "3.4.3",
  "updatedAt": "2022-01-08T15:42:47.772Z",
  "networkType": "ethereum",
  "devdoc": {
    "kind": "dev",
    "methods": {
      "approve(address,uint256)": {
        "details": "See {IERC721-approve}."
      },
      "balanceOf(address)": {
        "details": "See {IERC721-balanceOf}."
      },
      "getApproved(uint256)": {
        "details": "See {IERC721-getApproved}."
      },
      "isApprovedForAll(address,address)": {
        "details": "See {IERC721-isApprovedForAll}."
      },
      "name()": {
        "details": "See {IERC721Metadata-name}."
      },
      "ownerOf(uint256)": {
        "details": "See {IERC721-ownerOf}."
      },
      "safeTransferFrom(address,address,uint256)": {
        "details": "See {IERC721-safeTransferFrom}."
      },
      "safeTransferFrom(address,address,uint256,bytes)": {
        "details": "See {IERC721-safeTransferFrom}."
      },
      "setApprovalForAll(address,bool)": {
        "details": "See {IERC721-setApprovalForAll}."
      },
      "supportsInterface(bytes4)": {
        "details": "See {IERC165-supportsInterface}."
      },
      "symbol()": {
        "details": "See {IERC721Metadata-symbol}."
      },
      "transferFrom(address,address,uint256)": {
        "details": "See {IERC721-transferFrom}."
      }
    },
    "version": 1
  },
  "userdoc": {
    "kind": "user",
    "methods": {},
    "version": 1
  }
}